:400000000080002011000000650600006506000008B5044B1A6803F53F5302331A6000F041FB00BFFA46004010B5054C237833B9044B13B10448AFF300800123237010BD65
:400040006889FF1F0000000054670000084B10B51BB108490848AFF300800848036803B910BD074B002BFBD0BDE81040184700BF000000006C89FF1F54670000C880FF1F3C
:400080000000000008B500230A460146612000F0FDFE00F061FF10F0040FFAD108BD00BF38B500F0D3FC012000F0DCFC364B18700028F8D000F0E8FC344B188000F0F0FC56
:4000C000334B186001F0AEFB04460D4602460B4625A1D1E9000101F045FA25A3D3E9002301F0F4FB22462B4601F01AFD01F000FE0446284B1860002102F014F9E8B12649D5
:40010000204602F007F801F06BF801F08BFB1AA3D3E9002301F028FA02460B4618A1D1E9000101F0FDFC01F0E3FD1C4B18601C4901F032FE1B4B186002E01B4A194B1A60BE
:40014000184B186801F06EFB184C02460B461849204602F097FB204600F046FB4FF47A7000F064FB38BD00BF9A9999999999134000000000007CD540C6526846C8F52940CC
:4001800000000000003CAE40688AFF1FD889FF1FD489FF1F588AFF1F00FC1B46648AFF1F33938843D089FF1F00C079C4DC89FF1FD46700002DE9F04188B000F0D9FF012077
:4001C00000F0E4FF002000F0EDFFFF204C4B186000F088FF012000F04BFF4A4800F004FB73E0FFF75DFF484D484B1968286801F0D3FD0446464B18606E68314601F0D6FEAB
:40020000DFF82881D8F8001001F0C8FD0746C8F80000DFF81C81D8F80010204601F0BCFD314601F077FF06463A4B1860C8F80040A968204601F0BAFE0546374C216838461B
:4002400001F0B4FE0146284601F0A8FD05466168304601F0ABFE0146284601F09FFD804602F080F8264B1860FF2802DDFF221A6004E0002802DA0022214B1A60204D287873
:4002800000F030FF204B186801F0CCFA06460F46224C404601F0C6FACDE906012B6804931B4B186801F0BEFACDE90201174B186801F0B8FACDE9000132463B46184920460C
:4002C00002F0E0FA204600F08FFA164B186801F019FE0D4B196802F011F8002881D100F0C7FE00F0E5FE002000F050FF002000F059FF0D4800F078FA08B0BDE8F08100BF89
:400300006C8AFF1F00680000CC80FF1FD089FF1F5C8AFF1FC889FF1F8489FF1FDC89FF1F14680000548AFF1F4C680000608AFF1FCC89FF1F00B583B062B600F02BFC00F091
:4003400039FA00F087FE00F073FB0A4B186800901B798DF8043005216846FFF793FE4FF47A7000F063FA044800F03EFAFFF722FFFEE700BF6067000060680000FEE700BF8E
:40038000F0B40022174611E050F82760F3B226F0FF0608E001EB420511F812406D78A5550132013BDBB2002BF4D101371E2FEBD9F0BC704708B50A46002102F015FA08BDB9
:4003C000F8B5184B1B78DBB2174E3478E4B2174F3D78EDB203F00701154A11701B090132137044F00303337045F003033B700122104B1A70402302F1804202F5B242137066
:400400000232137010220C4B1A70202203331A700A2000F021FA3D7034704422074B1A70F8BD00BFCF010049F8460040F94600406E5800400D510040205B00407658004031
:4004400008B502F05BF908BD38B50024314B1C80582202331A70172202331A8018232E4A13703321023211800232137004222B492B48FFF7E5FF02222A4B1A7008224FF0D1
:4004800040231A70032103F500731970264B1B78DBB226490B70264B1A8041F25122023B1A8019250CE0234B1B7803F0010343EA440404F003044FF4F07000F081FE013D52
:4004C0000DB1032CEFD115B90320FFF757FF1A4B4FF480721A8007221A70002217490A704820023108701A700222033B1A7004220A331A70124A137843F007031370013AD7
:40050000137843F001031370013A137843F08003137038BD8040004086400040C8060048004100400043004008010049A14600402242004025420040044000400640004094
:40054000A243004038B572B6354A137843F00403137000240CE0334D630019194A0011462A44084691882858FFF724FF0134E4B2082CF0D900240BE02A49A30018194200E6
:4005800088180622C16B806BFFF75AFF0134E4B2002CF1D024494FF09040FFF7F1FE234A137843F0020313701032137843F0020313701F4C237843F040032370A2F586325B
:4005C000513A137843F010031370082219491A48FFF736FF0A2219491948FFF731FF082218491948FFF72CFF082218491848FFF727FF184A137843F008031370164D612345
:400600002B70FFF721FF81232B700122134B1A70FFF7D6FE0E2221461148FFF711FF38BDE84600407C6800007C00004803500140A0430040A406004802510040AC060048BE
:40064000C0510040B806004812510040C006004822510040224300400048004004000840B043004008B502F01BF803680C2B00D1FEE7FEE708B5094B1A681044084BC31AFD
:40068000B3F5006F02DC054B186005E002F008F80C2303604FF0FF32104608BDD880FF1F988AFF1F08B5104E104D16E029686B68AC68002204E051F8040B43F8040B04320F
:4006C000A242F8D1E868002203E0002143F8041B04328242F9D11035013E002EE6D101F0E5FFFFF727FEFEE701000000746A000008B5104A104B1A60104A136843F4007331
:40070000136000230AE0032B03D80D4A52F8231000E00C490C4A42F8231001332F2BF2D90A4B1A780A4B1A70074A0A4B1A60FFF709FF08BD0004FA050CED00E014ED00E0A5
:4007400000000000650600000080FF1FBC760040C080FF1F08ED00E07222074B1A70202201331A700622623B1A70472210331A700022AB3B1A7070478965004010B500F0AA
:4007800027FD04460A4A137843F0200313700132137843F010031370FD3A137843F01003137000F033F8204600F016FD10BD00BF9965004008B5054B1B7823B9FFF7CCFF76
:4007C0000122024B1A70FFF7D9FF08BD8C89FF1F034B1B7813F0040FFAD1024B187070476D6400404D64004038B5074B1B782BB938BDFFF7EDFF0134A4B201E00546002481
:40080000285D0028F5D138BD8C89FF1F054A137843F0040313701032137843F004031370704700BFA243004001BE704710B5044605E0084B186800F0C3FCA4F50044B4F5EF
:40084000004FF6D8034B586800FB04F000F0B8FC10BD00BFDC80FF1F08B5034B1B7A00FB03F000F0ADFC08BDDC80FF1F70B504460E46074B1D681F2802D90020FFF7D4FFA9
:4008800004F01F04103455F8240045F8246070BD08ED00E038B504460D46072902D90020FFF7C2FF1F2C02D90020FFF7BDFF04F01F0000F1604000F564406D01EDB2057086
:4008C00038BD00BF08B50A280FD00C2802D0082806D102E04FF4805209E04FF4807206E00020FFF7A1FF002201E04FF480620021094B198042F2107303FB02F303F6C41308
:40090000064A82FB0302DB17C3EBE223044A1360044B198008BD00BF708AFF1FAD8BDB68748AFF1F728AFF1F10B500F051FC04461E4A137843F0010313701032137843F051
:40094000010313701A3A137843F0010313701032137843F00103137002F5AA521232137843F0030313701822114B1A70013B1A7842F040021A701A7802F0FC021A70CE226A
:40098000053B1A700222A3F597530C3B1A70094A137843F0080313700A20FFF75DFF0122054B1A60204600F017FC10BDAB43004006590040275B004080E200E010B50446D8
:4009C0000A280DD00C2802D0082804D101E0C22207E0422205E00020FFF726FFC22200E08222034B1A702046FFF76CFF10BD00BF0259004008B5102000F07CF807210020E6
:400A0000FFF748FF07490020FFF730FF064A137843F0060313700C20FFF7D0FF0022034B1A8008BDF10A000001590040788AFF1F08B5054B1B7823B9FFF7DCFF0122024B18
:400A40001A70FFF771FF08BD8E89FF1F044B1A7802F0FB021A701A7842F001021A7070470059004010B5074B1B7813F0010401D10028F8D024B10120FFF7EEFE014B1B7866
:400A8000204610BD01590040034B188880B2034B1B88C01A00B27047A05B0040728AFF1F38B50F4B1B881BB233B10D4B1B881BB203EB83035C0001E00A4B1C680A4B1B88DB
:400AC000C01A00B201F01EFA084901F06FFA0546204601F017FA0146284601F01BFB38BD708AFF1F748AFF1F788AFF1F00002041704700BF034B1A7800F0F8001043187084
:400B0000704700BF0241004038B50222114B1A7081220E3B1A70082202331A700F2511331D70002401331C704FF400420A4B1A6007212846FFF7AEFE08492846FFF796FEA8
:400B40001022074B1A70074B1C70074B1C70074B1C7038BDD649004080E100E0BD0B00007A8AFF1F7E8AFF1F808AFF1F7C8AFF1F08B500F02DFB064A137843F0040313706F
:400B80001032137843F00403137000F025FB08BDA543004008B5074B1B7823B9FFF7B4FF0122044B1A70FFF7E3FF4FF40042024B1A6008BD8F89FF1F00E100E038B5A54BCE
:400BC0001C78A54B1B7813F0400F00F03A81E4B214F0010F00F01D819F4B1B78453B052B00F21481DFE813F006008200120112010600DF0004F0DF0504F00A04082C42D177
:400C0000954B1B78DBB2452B35D1944B1B7813F0FF0F10D0924B1B681B78DBB2914A137004228C4B1A7001228F4B1A7046228A4B1A702C46EDE08D4B1B7813F0020F0DD08D
:400C40008B4A137843F00A0313706022824B1A704FF40042874B1A602C46DAE0864A137843F0100313701022844B1A700422023B1A702C46CDE00022764B1A704A22764B26
:400C80001A702C46C5E00A2C2BD1794A137843F0A0031370754B1B7813F0020F14D06E4B1B7813F0080F01D0092300E00A23704A11780B4313706022674B1A704FF40042A8
:400CC0006C4B1A602C46A4E06B4A137843F0100313701022694B1A700422023B1A702C4697E00020FFF7A0FD2C4692E014F0020F36D15D4B1A78D2B2584B1B78DBB29A426E
:400D000010D2594A1378DBB255490968CB5CDBB254490B7004214F4B197013780133DBB2137076E0514B1B7813F0020F0CD0504A137843F00A0313706022474B1A704FF4E6
:400D400000424C4B1A6064E04B4A137843F0100313701022494B1A700422023B1A7058E0424B1B7813F0020F0CD0414A137843F09A0313706022384B1A704FF400423D4B69
:400D80001A6046E03C4A137843F01003137010223A4B1A700422023B1A70354A137843F09003137035E0364A1378DBB2354908682C490978C9B2C15413780133DBB2137048
:400DC0001278D2B2304B1B78DBB29A4203D21022204B1A701DE0254B1B7813F0020F0CD0234A137843F00903137060221A4B1A704FF400421F4B1A600BE01F4A137843F0DC
:400E0000100313700022134B1A7002E00020FFF70BFD14F0200F1CD00F4B1B7813F0080F01D0012300E00223114A11780B431370114A137803F0EF0313701022064B1A70E2
:400E400038BD054B1B7813F0100F02D11022024B1A7038BDD74900407A8AFF1F7F8AFF1F848AFF1FD84900407C8AFF1F7D8AFF1F7E8AFF1F80E100E0D6490040D949004000
:400E8000808AFF1F888AFF1F8C8AFF1F002948D070B40C4626490978C9B2102906D12549097811F0080F11D1002112E020490978C9B260290CD14FF400451F490D601F4DE4
:400EC000297801F0F7012970002102E0012100E0022149BB4526164D2E700026184D2E70184D2A70184A1460184A1370134C227802F0FD0222704200D2B21548027013F040
:400F0000010F06D012220B4B1A700422023B1A7002E00122074B1A704FF400420D4B1A6002E0022108467047084670BC704700BF7A8AFF1FD949004080E200E07E8AFF1FAC
:400F40007C8AFF1F7F8AFF1F848AFF1F7D8AFF1FD849004000E100E04FF40042084B1A60084B1878C0B2084B1B7813F0400F01D040F004004FF40042044B1A60704700BF0B
:400F800080E100E07E8AFF1F7A8AFF1F00E100E0024A137843F08003137070477B640040014B1870704700BF8B640040014B1878704700BF6B640040014B1860704700BFED
:400FC00008640040014B1868704700BF48640040014B1860704700BF28640040014B1860704700BF3864004008B501E0FFF7EAFFFFF7DCFF10F0400FF8D108BD08B5134AB6
:40100000137803F0F80343F005031370137803F0FC031370FFF7E8FF6FF00100FFF7D8FF0020FFF7C9FF0020FFF7BAFFFFF7BEFFFF20FFF7D3FF00F0CBF8054A137843F068
:401040001003137000F0C8F808BD00BF7B6400409B64004008B5054B1B7823B9FFF7CEFF0122024B1A70FFF793FF08BD9089FF1F044A137803F0EF03000100F01000184371
:401080001070704720510040084A137843F0010313701032137843F00103137002F64D32137843F001031370704700BFA3430040084A137803F0FE031370A2F65D321378CC
:4010C00003F0FE0313701032137803F0FE031370704700BF004F0040014B1880704700BF044F0040014B1880704700BF064F0040014B1870704700BF034F004008B5194A58
:40110000137843F0020313700232137803F08F0343F010031370144B1A7802F0CF021A701A7842F030021A701A7802F0F0021A701A7842F00F021A70FF20FFF7CDFF00203E
:40114000FFF7D0FF0020FFF7D3FF084A137843F00103137002F65E32137843F00103137008BD00BF004F00400B4F0040A343004008B5054B1B7823B9FFF7C0FF0122024BEA
:401180001A70FFF781FF08BD9189FF1F044A137803F0F703C00000F0080018431070704720510040044A137803F0FB03800000F004001843107070472051004000000000F0
:4011C0000230800803D000BF01380046FCD17047EFF3108072B6704780F31088704700BF70B58AB0044600F06FF8324B054693F90060731C0AD02146204601F09DF828B97D
:401200000021204601F08EF8034610B128460AB070BD294A20460893019200F003FBCDE90401CDE90201C6B9244B4FF0604220460021CDE9062301F04DF8002832D002232E
:401240000093684600F082F9A0B1089BBBB9DDE9060100F04DFD0AB070BD194B002220460021CDE9062301F035F868B102239E420093E6D101F014FA22230360E5E701F096
:401280000FFA089B0360E2E70123022E00930BD101F006FA212303600A4800F059F9CDE90601D2E701230093684600F04FF90028F2D1EDE7EC80FF1FC0680000FFFFEFC72F
:4012C0000000F0FF0069000020F000422DE9F0476AB30028014603464ADBB0F1FF4F3BDAB0F5000F3CDB00248C4AC3F316052A4402F40002DB1582F07E507F3B2344284341
:401300004FF07E5103EBD25400F046FD05F10F03C3F316030F2B064631DC002100F0DAFF002800F092804CB90020BDE8F08700214FF04C4000F0EEFEBDE8F087204600F05F
:40134000E1FD7749054600F031FE76490446284600F02CFE0146204600F020FDBDE8F0874FF0984100F022FE6FF018040346BBE700F012FD002100F0CDFEBDE8F0874FF03A
:40138000804100F00BFD0146304600F0C3FE8046204600F0B7FD41468146404600F006FE0146824600F002FE07465F4900F0FEFD5E4900F0F3FC394600F0F8FD5C4900F010
:4013C000EDFC394600F0F2FD5A4900F0E7FC514600F0ECFD58498246384600F0E7FD574900F0DCFC394600F0E1FD554900F0D6FC394600F0DBFD0146504600F0CFFC514F71
:40140000C5F557132F4403F522731F43002F824665DD4FF07C51304600F0C8FD314600F0C5FD0546002C32D12946504600F0B6FC414600F0BBFD0146284600F0ADFC0146A8
:40144000304600F0A9FCBDE8F0873F49304600F0ADFD01464FF07C5000F09EFC31460546304600F0A3FD0146284600F09FFD0546002C2ED0204600F045FD2949074600F00C
:4014800095FD04463846274900F090FD14E02449484600F08BFD29460446504600F07EFC414600F083FD1F490746484600F07EFD0146384600F072FC0146284600F06CFCF0
:4014C000314600F069FC0146204600F065FCBDE8F0870146304600F05FFCBDE8F0877CB10F49484600F062FD51460446304600F053FC414600F05AFD0A4905464846C3E746
:401500000146304600F048FC414600F04FFD0146304600F041FCBDE8F08700BF20FB4A008071313FD1F717379788173E25333A3E2549923EABAA2A3F4FD01C3E298E633E45
:40154000CDCCCC3E305CCFFFABAAAA3E0020704700200149704700BF0000F87F81F0004102E000BF83F0004330B54FEA41044FEA430594EA050F08BF90EA020F1FBF54EA16
:40158000000C55EA020C7FEA645C7FEA655C00F0E2804FEA5454D4EB5555B8BF6D420CDD2C4480EA020281EA030382EA000083EA010180EA020281EA0303362D88BF30BD34
:4015C00011F0004F4FEA01314FF4801C4CEA113102D0404261EB410113F0004F4FEA03334CEA133302D0524263EB430394EA050F00F0A780A4F10104D5F1200E0DDB02FAA5
:401600000EFC22FA05F2801841F1000103FA0EF2801843FA05F359410EE0A5F120050EF1200E012A03FA0EFC28BF4CF0020C43FA05F3C01851EBE37101F0004507D54FF037
:40164000000EDCF1000C7EEB00006EEB0101B1F5801F1BD3B1F5001F0CD349085FEA30004FEA3C0C04F101044FEA445212F5800F80F09A80BCF1004F08BF5FEA500C50F10B
:40168000000041EB045141EA050130BD5FEA4C0C404141EB010111F4801FA4F10104E9D191F0000F04BF01460020B1FA81F308BF2033A3F10B03B3F120020CDA0C3208DDDF
:4016C00002F1140CC2F10C0201FA0CF021FA02F10CE002F11402D8BFC2F1200C01FA02F120FA0CFCDCBF41EA0C019040E41AA2BF01EB0451294330BD6FEA04041F3C1CDA48
:401700000C340EDC04F11404C4F1200220FA04F001FA02F340EA030021FA04F345EA030130BDC4F10C04C4F1200220FA02F001FA04F340EA0300294630BD21FA04F029469D
:4017400030BD94F0000F83F4801306BF81F480110134013D4EE77FEA645C18BF7FEA655C29D094EA050F08BF90EA020F05D054EA000C04BF1946104630BD91EA030F1EBF77
:401780000021002030BD5FEA545C05D14000494128BF41F0004130BD14F580043CBF01F5801130BD01F0004545F0FE4141F470014FF0000030BD7FEA645C1ABF19461046ED
:4017C0007FEA655C1CBF0B46024650EA013406BF52EA033591EA030F41F4002130BD00BF90F0000F04BF0021704730B54FF4806404F132044FF000054FF0000150E700BF39
:4018000090F0000F04BF0021704730B54FF4806404F1320410F0004548BF40424FF000013EE700BF42004FEAE2014FEA31014FEA02701FBF12F07F4393F07F4F81F06051CC
:40184000704792F0000F14BF93F07F4F704730B54FF4607401F0004521F0004120E700BF50EA010208BF704730B54FF000050AE050EA010208BF704730B511F0004502D570
:40188000404261EB41014FF4806404F132045FEA915C3FF4DCAE4FF003025FEADC0C18BF03325FEADC0C18BF033202EBDC02C2F1200300FA03FC20FA02F001FA03FE40EA49
:4018C0000E0021FA02F11444C1E600BF70B54FF0FF0C4CF4E06C1CEA11541DBF1CEA135594EA0C0F95EA0C0F00F0DEF82C4481EA030621EA4C5123EA4C5350EA013518BFE6
:4019000052EA033541F4801143F4801338D0A0FB02CE4FF00005E1FB02E506F00042E0FB03E54FF00006E1FB03569CF0000F18BF4EF0010EA4F1FF04B6F5007F64F5407426
:4019400004D25FEA4E0E6D4146EB060642EAC62141EA55514FEAC52040EA5E504FEACE2EB4F1FD0C88BFBCF5E06F1ED8BEF1004F08BF5FEA500E50F1000041EB045170BDAC
:4019800006F0004646EA010140EA020081EA0301B4EB5C04C2BFD4EB0C0541EA045170BD41F480114FF0000E013C00F3AB8014F1360FDEBF002001F0004170BDC4F1000494
:4019C000203C35DA0C341BDC04F11404C4F1200500FA05F320FA04F001FA05F240EA020001F0004221F0004110EBD37021FA04F642EB06015EEA430E08BF20EAD37070BD5A
:401A0000C4F10C04C4F1200500FA04F320FA05F001FA04F240EA020001F0004110EBD37041F100015EEA430E08BF20EAD37070BDC4F1200500FA05F24EEA020E20FA04F349
:401A400001FA05F243EA020321FA04F001F0004121FA04F220EA020000EBD3705EEA430E08BF20EAD37070BD94F0000F0FD101F00046400041EB010111F4801F08BF013C1C
:401A8000F7D041EA060195F0000F18BF704703F00046520043EB030313F4801F08BF013DF7D043EA0603704794EA0C0F0CEA135518BF95EA0C0F0CD050EA410618BF52EA15
:401AC0004306D1D181EA030101F000414FF0000070BD50EA410606BF1046194652EA430619D094EA0C0F02D150EA013613D195EA0C0F05D152EA03361CBF104619460AD174
:401B000081EA030101F0004141F0FE4141F470014FF0000070BD41F0FE4141F4780170BD70B54FF0FF0C4CF4E06C1CEA11541DBF1CEA135594EA0C0F95EA0C0F00F0A7F8C5
:401B4000A4EB050481EA030E52EA03354FEA013100F088804FEA03334FF0805545EA131343EA12634FEA022245EA111545EA10654FEA00260EF000419D4208BF964244F159
:401B8000FD0404F5407402D25B084FEA3202B61A65EB03055B084FEA32024FF480104FF4002CB6EB020E75EB030E22BFB61A754640EA0C005B084FEA3202B6EB020E75EBF4
:401BC000030E22BFB61A754640EA5C005B084FEA3202B6EB020E75EB030E22BFB61A754640EA9C005B084FEA3202B6EB020E75EB030E22BFB61A754640EADC0055EA060E07
:401C000018D04FEA051545EA16754FEA06164FEAC30343EA52734FEAC2025FEA1C1CC0D111F4801F0BD141EA00014FF000004FF0004CB6E711F4801F04BF01430020B4F1D7
:401C4000FD0C88BFBCF5E06F3FF6AFAEB5EB030C04BFB6EB020C5FEA500C50F1000041EB045170BD0EF0004E4EEA113114EB5C04C2BFD4EB0C0541EA045170BD41F48011E4
:401C80004FF0000E013C90E645EA060E8DE60CEA135594EA0C0F08BF95EA0C0F3FF43BAF94EA0C0F0AD150EA01347FF434AF95EA0C0F7FF425AF104619462CE795EA0C0F7D
:401CC00006D152EA03353FF4FDAE1046194622E750EA410618BF52EA43067FF4C5AE50EA41047FF40DAF52EA43057FF4EBAE12E74FEA4102B2F1E04324BFB3F5001CDCF14D
:401D0000FE5C0DD901F0004C4FEAC0024CEA5070B2F1004F40EB830008BF20F00100704711F0804F21D113F13872BCBF01F00040704741F480114FEA5252C2F11802C2F110
:401D4000200C10FA0CF320FA02F018BF40F001004FEAC1234FEAD32303FA0CFC40EA0C0023FA02F34FEA4303CCE77FEA625307D150EA01331EBF4FF0FE4040F44000704766
:401D800001F0004040F0FE4040F40000704700BF80F0004002E000BF81F0004142001FBF5FEA410392EA030F7FEA226C7FEA236C6AD04FEA1262D2EB1363C1BFD2184140A8
:401DC00048404140B8BF5B42192B88BF704710F0004F40F4000020F07F4018BF404211F0004F41F4000121F07F4118BF494292EA030F3FD0A2F1010241FA03FC10EB0C00AC
:401E0000C3F1200301FA03F100F0004302D5494260EB4000B0F5000F13D3B0F1807F06D340084FEA310102F10102FE2A51D2B1F1004F40EBC25008BF20F0010040EA030082
:401E40007047490040EB000010F4000FA2F10102EDD1B0FA80FCACF1080CB2EB0C0200FA0CF0AABF00EBC25052421843BCBFD0401843704792F0000F81F4000106BF80F426
:401E800000000132013BB5E74FEA41037FEA226C18BF7FEA236C21D092EA030F04D092F0000F08BF0846704790EA010F1CBF0020704712F07F4F04D1400028BF40F00040AC
:401EC000704712F100723CBF00F50000704700F0004343F0FE4040F4000070477FEA226216BF08467FEA23630146420206BF5FEA412390EA010F40F4800070474FF000034D
:401F000004E000BF10F0004348BF40425FEA000C08BF704743F0964301464FF000001CE050EA010208BF70474FF000030AE000BF50EA010208BF704711F0004302D54042D3
:401F400061EB41015FEA010C02BF84460146002043F0B64308BFA3F18053A3F50003BCFA8CF2083AA3EBC25310DB01FA02FC634400FA02FCC2F12002BCF1004F20FA02F21B
:401F800043EB020008BF20F00100704702F1200201FA02FCC2F1200250EA4C0021FA02F243EB020008BF20EADC7070474FF0FF0C1CEAD0521EBF1CEAD15392EA0C0F93EA59
:401FC0000C0F6FD01A4480EA010C400218BF5FEA41211ED04FF0006343EA501043EA5111A0FB01310CF00040B1F5000F3EBF490041EAD3715B0040EA010062F17F02FD2A4E
:402000001DD8B3F1004F40EBC25008BF20F00100704790F0000F0CF0004C08BF49024CEA502040EA51207F3AC2BFD2F1FF0340EAC250704740F400004FF00003013A5DDCE6
:4020400012F1190FDCBF00F000407047C2F10002410021FA02F1C2F1200200FA02FC5FEA310040F1000053EA4C0308BF20EADC70704792F0000F00F0004C02BF400010F405
:40208000000F013AF9D040EA0C0093F0000F01F0004C02BF490011F4000F013BF9D041EA0C018FE70CEAD15392EA0C0F18BF93EA0C0F0AD030F0004C18BF31F0004CD8D1E4
:4020C00080EA010000F00040704790F0000F17BF90F0004F084691F0000F91F0004F14D092EA0C0F01D142020FD193EA0C0F03D14B0218BF084608D180EA010000F00040E9
:4021000040F0FE4040F40000704740F0FE4040F4400070474FF0FF0C1CEAD0521EBF1CEAD15392EA0C0F93EA0C0F69D0A2EB030280EA010C49024FEA402037D04FF08053C6
:4021400043EA111143EA10130CF000408B4238BF5B0042F17D024FF4000C8B4224BF5B1A40EA0C00B3EB510F24BFA3EB510340EA5C00B3EB910F24BFA3EB910340EA9C00B7
:40218000B3EBD10F24BFA3EBD10340EADC001B0118BF5FEA1C1CE0D1FD2A3FF650AF8B4240EBC25008BF20F0010070470CF0004C4CEA50207F32C2BFD2F1FF0340EAC2501C
:4021C000704740F400004FF00003013A37E792F0000F00F0004C02BF400010F4000F013AF9D040EA0C0093F0000F01F0004C02BF490011F4000F013BF9D041EA0C0195E798
:402200000CEAD15392EA0C0F08D142027FF47DAF93EA0C0F7FF470AF084676E793EA0C0F04D14B023FF44CAF08466EE730F0004C18BF31F0004CCAD130F000427FF45CAFA6
:4022400031F000437FF43CAF5FE700BF4FF0FF3C06E000BF4FF0010C02E000BF4FF0010C4DF804CD4FEA40024FEA41037FEA226C18BF7FEA236C11D001B052EA530C18BF67
:4022800090EA010F58BFB2EB030088BFC81738BF6FEAE17018BF40F0010070477FEA226C02D15FEA402C05D17FEA236CE4D15FEA412CE1D05DF8040B704700BF84460846FC
:4022C0006146FFE70FB5FFF7C9FF002848BF10F1000F0FBD4DF808EDFFF7F4FF0CBF012000205DF808FB00BF4DF808EDFFF7EAFF34BF012000205DF808FB00BF4DF808EDE0
:40230000FFF7E0FF94BF012000205DF808FB00BF4DF808EDFFF7D2FF94BF012000205DF808FB00BF4DF808EDFFF7C8FF34BF012000205DF808FB00BF4FEA40024FEA410337
:402340007FEA226C02D15FEA402C08D17FEA236C02D15FEA412C02D14FF0000070474FF0010070474FEA4002B2F1FE4F0FD34FF09E03B3EB12620DD94FEA002343F00043CD
:4023800010F0004F23FA02F018BF404270474FF00000704712F1610F01D1420205D110F0004008BF6FF0004070474FF0000070472DE9F04F8C460C460546099E002B4FD151
:4023C0008A4217466BD9B2FA82FEBEF1000F0BD0CEF1200520FA05F501FA0EF345EA030C02FA0EF700FA0EF5390CBCFBF1F0BAB201FB10C300FB02F84FEA154C4CEA034457
:40240000A04509D9E41900F1FF3380F02881A04540F2258102383C44C8EB0404B4FBF1F301FB134C03FB02F2ACB244EA0C418A4209D9C91903F1FF3480F00F818A4240F2FC
:402440000C81023B39448A1A43EA00400021002E63D022FA0EF2002386E80C00BDE8F08F8B4207D9002E56D0002186E811000846BDE8F08FB3FA83F1002940F09380A34220
:4024800002D3824200F2FE80851A64EB03039C460120002E41D086E82010BDE8F08F12B90127B7FBF2F7B7FA87FEBEF1000F36D1E41B4FEA17481FFA87F90121B4FBF8F3A6
:4024C00008FB134409FB03F24FEA154C4CEA0444A24207D9E41903F1FF3002D2A24200F2D3800346A41AB4FBF8F008FB104809FB00F9ACB244EA0842914507D9D21900F132
:40250000FF3402D2914500F2BA802046C9EB020240EA03409BE731463046BDE8F08F07FA0EF7CEF1200C24FA0CF34FEA1748B3FBF8FA1FFA87F908FB1A3520FA0CFC04FA23
:402540000EF40AFB09FB4CEA040C4FEA1C4242EA05439B4500FA0EF50AD9DB190AF1FF3280F08B809B4540F28880AAF1020A3B44CBEB0303B3FBF8F008FB103300FB09F4D4
:402580001FFA8CFC4CEA03439C4207D9DB1900F1FF326ED29C426CD902383B441C1B40EA0A418BE7C1F1200E8B4022FA0EFC4CEA030C24FA0EF74FEA1C49B7FBF9FA1FFA5B
:4025C0008CF309FB1A7720FA0EF88C400AFB03F548EA04044FEA144848EA0747BD4202FA01F200FA01FB09D917EB0C070AF1FF3041D2BD423FD9AAF1020A67447F1BB7FBC2
:40260000F9F509FB157705FB03F3A4B244EA0747BB4208D917EB0C0705F1FF3027D2BB4225D9023D674445EA0A40A0FB0289FF1A4F4545464C4614D329D066B3BBEB05034E
:4026400067EB040707FA0EFECB40CF404EEA030386E888000021BDE8F08F2346F3E61846DAE6B8EB020569EB0C040138E5E70546D9E7104692E78246C0E7924678E7023830
:402680003A4443E7084604E7023B3C442AE7C345E7D33C46D1E73146BDE8F08F704700BF014B1868704700BF1885FF1F70B50F4E0F4D761BB61018BF002405D0013455F8DA
:4026C000043B9847A642F9D10A4E0B4D04F0BEF9761BB61018BF002406D0013455F8043B9847A642F9D170BD70BD00BF586A0000586A0000646A0000586A0000844641EA13
:40270000000313F0030349D1403A23D30B6803604B6843608B688360CB68C3600B6903614B6943618B698361CB69C3610B6A03624B6A43628B6A8362CB6AC3620B6B036307
:402740004B6B43638B6B8363CB6BC36340304031403ADBD230320BD30B6803604B6843608B688360CB68C36010301031103AF3D20C3205D351F8043B40F8043B043AF9D277
:40278000043208D0D2071CBF11F8013B00F8013B01D30B8803806046704700BF082A13D38B07B1D010F00303AED0C3F10403D21ADB071CBF11F8013B00F8013BA4D331F8AC
:4027C000023B20F8023B9FE7043AD9D3013A11F8013B00F8013BF9D20B7803704B7843708B7883706046704770B4840746D0541E002A41D0CDB2034602E0621EE4B314460C
:4028000003F8015B9A07F8D1032C2ED9CDB245EA05250F2C45EA054519D9264603F11002103E0F2E42F8105C42F80C5C42F8085C42F8045C02F11002F2D8A4F1100222F01E
:402840000F0204F00F041032032C13440DD91E462246043A032A46F8045BFAD8221F22F003020432134404F003042CB1C9B21C4403F8011BA342FBD170BC70471446034606
:40288000C2E700BF0EB40146F0B54FF6FF779CB021AC54F8042B0D4823466FF00045029106914FF4027602A900680194ADF81670ADF814600495079500F00AF8029B00229A
:4028C0001A701CB0BDE8F04003B070471885FF1F2DE9F04FC1B00C46099115460E930A9002F084FB03681846179303F0A1F9A38916901E0603D52369002B01F05D81002358
:402900001A46A8460DF1C009DFF860A4129319930B9325932493CDF88C901492159298F800304446EBB1252B02D11AE0252B03D014F8013F002BF9D1C8EB04058DB1249BFB
:40294000259A01332A44072BC9F80080C9F804502592249300F3328309F108090B9B2B440B932378002B00F0EA814FF0FF3B5D4600231A468DF86F3019460C930793637843
:4029800004F1010808F10108A3F12000582800F24586DFE810F0F30343064306FC034306430643064306430643065900040443066600D0034306EC03BC05BC05BC05BC0503
:4029C000BC05BC05BC05BC05BC054306430643064306430643064306430643064306E205F7044306F70443064306430643064205430643064A054306430643064306430659
:402A0000740543064306CD0543064306430643064306430643064306430643061D060E06F704F704F70415060E0643064306A3044306A805AE046D000A0443061204430684
:402A400035044306430670040E9C236818460C932346002803F104030E9306DA0C9B5B420C93079B43F00403079398F8003089E7AB460E9A0027079830217823BB45146888
:402A80008DF8701002F104024FF000058DF871308DF86F7040F00201C0F23D8620F0800141F00201079154EA05010E921193AD4800F0318130AE230943EA0573290904F051
:402AC0000F020D461C46835C06F8013D54EA0503F1D130AB9B1B0D930D9B5B45B8BF5B4608930023139317B1089B01330893079B13F002030F9302D0089B02330893079B8B
:402B000013F08403109340F018810C9B089A9D1A002D40F31281102D2599249A924F27DD189648461024B946099E2F460A9D04E0103F102F00F1080016DD01328A4B103135
:402B4000072A2591249280E81800F1DD23AA3146284603F09BF8002840F0F880103F102F30A82599249AE8DC3D464F468146189E01326C18072A25942492C9F80070C9F8DE
:402B8000045000F3D0809DF86F7009F1080977B1249B013401330DF16F010122072B2594249389E8060000F3208209F108090F9B6BB1249B023401331CA90222072B2594A2
:402BC000249389E8060000F31C8209F10809109B802B00F02C810D9BC3EB0B07002F33DD624A102F249B0F9222DD22464FF0100B0A9D099C04E0103F102F09F1080916DDA9
:402C000001331032072B2592249389E8000CF2DD23AA2146284603F039F8002840F09680103F102F0DF1C009259A249BE8DC144601330F9A3C44072B2594249389E8840019
:402C400000F3C78109F10809079BDA0500F19080249B0D9901330C44072B2594C9F80060C9F80410249300F3E28109F10809079B590736D50C9B089A9D1A002D31DD102D25
:402C8000249B394F22DD22461026DDF828B0099C04E0103D102D09F1080916DD013332491032072B2592249389E84200F1DD23AA2146584602F0EAFF002847D1103D102DE9
:402CC0000DF1C009259A249BE8DC144601332C44072B25942493C9F80070C9F8045000F392840B9B0C9A08998A42ACBF9B185B180B93002C40F05981002324930DF1C0091D
:402D00000DE60027BB458DF86F70C0F20E85079B23F080030793BBF1000F00F06C84002400250027C6E623AA09990A9802F0AEFF60B99DF86F700DF1C009259C27E7259BB4
:402D400023B10A9823AA099902F0A0FF099B9B8913F0400F0B9B18BF4FF0FF33184641B0BDE8F08F04690000D068000024690000119B652B40F39F80149815990022002303
:402D800003F060FC002800F06381249BAE49013301340122072B2594249389E8060000F3538409F108091D9B129A934203DB079BDB077FF55CAF249B16990133179A0C44DB
:402DC000072B2594C9F80020C9F80410249300F3E68609F10809129B5D1E002D7FF747AF9A4A102D249B0F9240F3178110260A9FDDF824B005E009F10809103D102D40F3CF
:402E00000C8101331034072B25942493C9F800A0C9F80460EFDD23AA5946384602F036FF002893D10DF1C009259C249BE5E70C9B089A9F1A002F7FF7CEAE844A102F249BFA
:402E40000F922BDD4A462146B946102537460A9C099E06E0A9F11009B9F1100F02F1080218DD01331031072B25912493C2F800A05560EFDD23AA3146204602F007FF0028A7
:402E80007FF464AFA9F11009B9F1100F30AA2599249BE6DC3E460C464F46914601330F9A3C44072B2594249389E8840000F32B8509F108098FE6129B249D012B04F101040A
:402EC00005F1010540F3E8840123072D2594C9F800602495C9F8043000F3F98409F10809169A0135179B1444072D25942495C9F80030C9F8042000F3F88409F108090023D3
:402F000014981599002203F09DFB129B002800F0EA805E1E002E40F3F5804C4B102E0F932CDDCDF834801027B046DDF828B0099E06E0A8F11008B8F1100F09F108091ADD2E
:402F400001351034072D25942495C9F800A0C9F80470EEDD23AA3146584602F097FE00287FF4F4AEA8F11008B8F1100F0DF1C009259C249DE4DC4646DDF8348001350F9BB3
:402F80003444072D2594249589E8480040F3B88023AA09990A9802F079FE00287FF4D6AE259C249D0DF1C009ACE023AA09990A9802F06CFE00283FF49FAEC7E623AA099930
:402FC0000A9802F063FE00287FF4C0AE0DF1C009C4E423AA09990A9802F058FE00287FF4B5AE0DF1C009259C2EE623AA09990A9802F04CFE00287FF4A9AE0DF1C009259CAA
:40300000D5E523AA09990A9802F040FE00287FF49DAE0DF1C009259CD9E501330F9A2C44072B2594249389E824007FF71EAE23AA09990A9802F02AFE00287FF487AE259CE7
:403040000DF1C00913E600BF20690000246900001D9D002D40F30E83139B129A9342A8BF1346002B1D460DDD249B2C440133072B2594C9F80060C9F80450249300F31586E0
:4030800009F10809139B002DA8BF5B1B002B1D4640F3A083B94A102D249B0F9240F3458522461027DDF828B0099C05E009F10809103D102D40F3388501331032072B259212
:4030C0002493C9F800A0C9F80470EFDD23AA2146584602F0DBFD00287FF438AE0DF1C009259A249BE4E7013B013501361C44072DC9F8006024952594C9F804303FF748AF98
:4031000009F10809199A013514441FAB072D25942495C9F80420C9F800307FF7A6AD23AA09990A9802F0B2FD00287FF40FAE0DF1C009259C9BE598F8003008F101042A2B0F
:4031400000F02B87A3F13000092898BF002500F2AF8614F8013B05EB850500EB4505A3F130000928F5D945EAE575A0460CE4079B43F08003079398F8003003E498F80030A3
:4031800000297FF4FFAB01222021FFF7FBBB079B43F00103079398F80030FFF7F3BB98F8003001222B21FFF7EDBB079B43F02003079398F80030FFF7E5BB0E9AAB46166816
:4031C000002511938DF86F50141D002E00F0E585BBF1000FC0F23F855A462946304602F0B5F9002800F05886AB46831B0D9323EAE3730E940893CDF84CB09DF86F7072E463
:403200001193AB46002A40F0ED86079A12F0200300F043810E9C0027073424F0070303F10801BB450E91D3E900458DF86F70C0F2C18222F08003079354EA050300F0488164
:40324000002D08BF0A2CC0F0488130AE204629460A22002303F066FA303206F8012D2046294600230A2203F05DFA04460D4654EA0503EBD12DE41193AB46002A40F0CA866B
:40328000079B3F489D0640F15D810E9C073424F0070303F108020E92D3E90045079A12F0010700F0468254EA05033FF42AAD9DF8442000278DF87120079A3023BB458DF82F
:4032C00070308DF86F7042F00203C0F28D8522F0800343F002030793FFF7ECBB98F800306C2B00F05284079840F010000790FFF749BB1193AB46002A40F09486079A12F092
:40330000200300F0A0800E9C0027073424F0070303F10801BB450E91D3E900458DF86F700BDB22F08003079354EA050306D1BBF1000F00F0A28500240025002730AEE208F3
:4033400042EA4572E90804F007030D461446303354EA050206F8013DF1D1079AD1077FF5B8AB302B3FF4B5AB3022731E06F8012C30AAD21A0D921E46FFF7AEBB2469000027
:40338000046900001193AB46002A40F04786079B0E9C1A0704F1070440F16C8324F0070303F108020E921A685B6814921593159B149D23F00044284621464FF0FF32A94B17
:4033C00003F072F9002840F0CD82284621464FF0FF32A44B03F04AF9002840F0C382149815990022002303F037F9002840F0F6849DF86F7007999C4E21F080019B4B07911F
:40340000119903224FF0000B08924729D8BF1E460D92CDF84CB0FFF766BB079B43F00803079398F80030FFF7ADBA1193AB46002A40F0EC85079B43F010030793079A12F0DB
:4034400020037FF460AF079911F0100200F068820E98BBF1000F024604688DF86F3002F104024FF00005C0F2C28421F08001079154EA05010E923FF45AAF1F465EE7119314
:40348000AB46002A40F0BE85079B43F010030793079A12F020037FF4BDAE079911F0100200F026830E98BBF1000F024604688DF86F3002F104024FF00005C0F28C8421F0C3
:4034C0008001079154EA05010E921F467FF4B8AEBBF1000F00F09080002440AE303406F8414DFFF7F6BA002A40F08885079B9B0640F1CA820E9A134604330E930B9B11680F
:40350000DD171A462B46C1E90023FFF708BAA3F1300000231C4618F8013B04EB840400EB4404A3F130000928F5D90C94FFF72CBA1193AB46002A40F05D85079B4C489D0619
:403540003FF5A3AE079BDC0640F1B5820E9A00251346043314680E93A0E61193AB46002A40F04485079B43F010030793079B980640F1F1800E9C073424F00704D4E90023DA
:4035800004F108011D4614460E91002A73F10003C0F2F280BBF1000F9DF86F70C0F20A81079B23F08003079354EA05037FF448AE8EE71193AB46002AD8D08DF86F10D5E773
:4035C000079B43F04003079398F80030FFF7DAB90E9911930A68002301201F468DF86F309B4613930B1D08908DF898200E930D9026AEFFF77CBA5F464FF0000BCDF834B0EC
:4036000030AEFFF769BA23AA09990A9802F03EFB00287FF49BAB259CFFF763BB1193002A40F0D384119A002A3FF489AB002301211F4608918DF898208DF86F309B461393E5
:403640000D9126AEFFF753BA23AA09990A9802F01DFB00287FF47AAB0DF1C009259CFFF7A2BB00BFFFFFEF7FE4680000E0680000F0680000249BB849013301340122072B8A
:403680002594249389E8060000F3C28209F108092DB9129B1BB9079BDF077FF5E8AA249B16990133179A0C44072B2594C9F80020C9F80410249300F3FF8309F108096D42C2
:4036C000002D40F3DB82A54A102D0F9240F34B8322461027DDF828B0099C05E009F10809103D102D40F33E8301331032072B25922493C9F800A0C9F80470EFDD23AA214634
:40370000584602F0C3FA00287FF420AB0DF1C009259A249BE4E792480791119354EA05030E924FF000077FF4C5A900240025FFF7C1B9BBF1000F8DF86F70C0F2038222F082
:403740008003079354EA05037FF4B4A9BBF1000F7FF4E5AA4FE7079BD90640F1BA810E9A13461C680433E51722460E932B46002A73F10003BFF60EAF64424FF02D0765EB98
:403780004505BBF1000F8DF86F70FFF659AD079B23F08003079353E50E9ABBF1000F134614688DF86F7003F104034FF0000580F2E2810E9354EA05037FF442AD8DE623AA62
:4037C00009990A9802F062FA00287FF4BFAA259C0DF1C009139A1D9B32441746129A934249DB079AD50746D412990E44F51BCB1A9D42A8BF1D46002D2E460DDD249A2C44E3
:403800000132072A2594C9F80070C9F80450249200F3D28209F10809002EB4BF1D469D1B002D7FF724AA4D4A102D249B0F927FF7F4AB10260A9FDDF824B005E009F108092F
:40384000103D102D7FF7E9AB01331034072B25942493C9F800A0C9F80460EFDD23AA5946384602F013FA00287FF470AA0DF1C009259C249BE4E7249A169801321799044401
:40388000072A2594C9F80010C9F80400249200F3778209F10809A7E7079BD8073FF514AB0123072D2594C9F800602495C9F804307FF726AC23AA09990A9802F0E7F90028A6
:4038C0007FF444AA0DF1C009259C249D1AE423AA09990A9802F0DAF900287FF437AA0DF1C009259C249DFFF7FBBA23AA09990A9802F0CCF900287FF429AA0DF1C009259C1C
:40390000249DFFF7FCBA23AA09990A9802F0BEF900287FF41BAA0DF1C009259CFFF75BB9079911F0400700F00F810E98BBF1000F034604888DF86F2003F104034FF000057D
:40394000C0F2738121F08001079154EA05010E933FF4EDAC1746F1E4206900002469000004690000149C22462046159C2346214602F09AFE002840F0C182119BBBF1FF3F57
:4039800023F020030D9300F04982472B00F05081079B43F480731093159B1F1E149B0893B7BF3B46002303F100472D230F93119B662B00F01F82462B00F00D810D9B21A828
:4039C000452B18BF5D461EA908BF0BF10105049003911DA802213B460290089A019500910A9800F0C9FB119B0646672B40F03482079BDA0740F16F82741908983946002228
:403A0000002302F01FFE002840F04D81219B9C4206D930215A1C21921970219B9C42F9D89B1B12930D9B472B00F03681119B652B40F32182119B662B1D9B139300F0FE810F
:403A4000139A12998A42C0F2EC81079BD90700F1448222EAE2730D92672211920F9A002A40F0EF800893109B934607939DF86F70FFF739B824F00704236814936368159354
:403A800004F108030E9392E4079BDF060BD4079B5E0608D50E9A136804320E92BDF82C201A80FEF73CBF0E9A136804320E920B9A1A60FEF734BF0E9A079B002513F0400F61
:403AC000134603F104030CBF146814880E93FFF7E5BB079B0E9A13F0400F13463FF441AEB2F900400433E5170E9322462B464CE5079911F040073FF44FAE0E98BBF1000FFF
:403B0000034604888DF86F2003F104034FF00005C0F2948021F08001079154EA05010E9317467FF48DABD3E4144601330F9A2C44072B2594249389E824003FF740AE09F1CD
:403B4000080947E60E9AE9E50E9ABBF1000F134614688DF86F7003F104034FF0000564DB079A0E9322F08002079254EA05027FF4E5ABFFF7DCBB079A0E9322F080020792C4
:403B800054EA05027FF45CABA2E4079B08F1010843F02003079398F80030FEF7F3BE23AA09990A9802F072F800287FF4CFA80DF1C009259CFFF70FB940210A9801F01AFAF9
:403BC000099A10601061002800F0F581099A40235361FEF794BE21A81EA9049003911DA803210290089A3B46CDF804B000910A9800F0C2FA5D460646119B7419462B7FF4F8
:403C0000FCAE3378302B00F097811D9D2C44F4E623AA09990A9802F039F800287FF496A80DF1C0091D9D259C32E50E93FFF785BBBBF1000F08BF4FF0010BA9E60E93174631
:403C4000B8E50893109B2D2707938DF86F704FF0000BFEF749BF304601F0EAFFAB460346FFF7C4BA23AA09990A9802F00FF800287FF46CA8259C249B0DF1C00912990133EB
:403C80000C44072B25942493C9F80060C9F804107EF7EBAFFFF7CBB91D9BDD1C12DB9B4510DB1393CCE62346BAE623AA09990A9801F0ECFF00287FF449A80DF1C009259CC8
:403CC000FFF7E0B9119A023A1192013B9DF84420002B1D93B8BF5B428DF87C20B4BF2D222B22092B8DF87D2040F300810DF18B000446B84A82FB0321DA17C2EBA10101EBAB
:403D00008102A3EB4202303209290B4604F8012DEFDC21463033DAB201F8012D884240F251810DF17E01234601E013F8012B984201F8012BF9D1431C1B1B0DF17E021344D8
:403D40001FAA9B1A129A1993012A13440D9340F309810D9B169A134400220D93139223EAE3737BE6144601330F9A2C44072B2594249389E824003FF775AF09F108097DE70D
:403D800023AA09990A9801F081FF00287EF4DEAF0DF1C0091D9B259C26E55B46062B28BF06230D9323EAE373B346374613960E940893894EFEF797BE23AA09990A9801F0AB
:403DC00065FF00287EF4C2AF1D9B129A259CD31A0DF1C00920E50E921F46EBE42D231F468DF86F30FFF706BB0793FEF763BE0E92FFF7A3BA21A81EA9049003911DA80321CE
:403E00000290089A3B46CDF804B000910A9800F0B3F95D46064600EB0B04F2E64FF0060BB6E5169A129B1344139A0D93002A40F39180672223EAE37311920FE6002B40F388
:403E40009B80BBF1000F6ED1079AD4076BD41A4623EAE3730D9201E6119B472B7FF4CCAD079BDB073FF5C8AE219B9B1B12930D9B472B3FF411AF1D9B27E7079B5F46DB07DE
:403E800005D540AE302306F8413DFEF722BECDF834B030AEFEF720BE2BEAEB73CDF834B0089383460E9413909DF86F70FEF71BBEA0460025FEF768BD23AA09990A9801F00E
:403EC000E5FE00287EF442AF0DF1C0091D9D259C249BFFF7F4BB219BA2E5169A139B134467220D93119223EAE373B7E5303330228DF87F308DF87E2020AB21E70799374EE7
:403F000021F08001364B0791119903224FF0000B08924729D8BF1E460D92CDF84CB09DF86F70FEF7E0BD139B169A9D1805EB0B030D9323EAE37391E5089839460022002364
:403F400002F080FB00287FF460AEC5F101051D952C4452E5139B0D9AC3F101031A4413460D9266E7079B13F001037FF4F2AE13930D9B23EAE37371E5BBF1000F02D1079B73
:403F8000D80707D5169B5D1C05EB0B030D9323EAE37363E501230D9360E50E9898F8013005680430002D0E90A046BEF6EBAC4FF0FF35FEF7E7BC0A9A0C2313604FF0FF3007
:403FC000FEF7CDBE0DF17E03BAE68DF86F10FFF729BB00BF6766666618690000EC680000E86800008DF86F10FFF70FB98DF86F10FFF7B8BA8DF86F10FFF79FBA8DF86F1042
:40400000FFF774BA8DF86F10FFF73EBA8DF86F10FFF710BA8DF86F10FFF732B98DF86F10FFF7B5B98DF86F10FFF768B9024B13B1024800F005B8704700000000C54F00006B
:40404000002301461A46184601F0A0BE2DE9F04F03690F6983B09F4200F38980013F01F1140600F1140A56F827305AF827200133B2FBF3F8BB00009306EB030953440193A5
:40408000B8F1000F3BD000231C46B446D6465CF804BBDEF800501FFA8BF208FB02324FEA1B4B130C08FB0B3392B2A41A1FFA83FBAAB22244CBEB154404EB224492B242EA6E
:4040C0000442E1454EF8042B4FEA24444FEA1343DDD2009B5AF803308BB9019C231F9A450CD254F8043C4BB9A4F1080302E01A68043B1AB99A4507F1FF37F8D307610446D0
:4041000001F07CFC00282EDB00235546194608F1010856F8042B2B6890B2081A120C99B2C2EB1343421803EB224392B242EA0342B14545F8042B4FEA2341EAD25AF8272030
:404140000AEB87037AB91A1F92450BD253F8042C42B9083B02E01A68043B1AB99A4507F1FF37F8D32761404603B0BDE8F08F002003B0BDE8F08F00BF2DE9F04F016C99B0F3
:40418000814692469B46259C49B1426C012393408B604A6001F04CFA0023C9F84030BBF1000FD84633DB00232360A34B1A4608EA0303934214D0002200235046594602F007
:4041C00041FA054648B3249A01231360269B002B00F0C58099481860013819B0BDE8F08F42F20F73249A1360BAF1000F00F0A2809348269B002BF0D0C378002B00F0B18088
:4042000000F10803269A136019B0BDE8F08F01232BF000482360C346C7E716AA17AB0192009352465B46484601F09CFC5FEA1854099040F08880169D179C2C4404F23243E2
:40424000202B40F38A82C3F1400304F2124008FA03F82AFA00F040EA0800FDF7C1FA0123013CA1F1F8710F930022764BFDF77AF96BA3D3E90023FDF729FB6BA3D3E9002349
:40428000FDF772F9064620460F46FDF7B9FA68A3D3E90023FDF71AFB02460B4630463946FDF762F906460F4602F014FA0022039000233046394602F0CFF9002840F02982F6
:4042C000039E162E00F222825F49524601EBC6015B46D1E9000102F0DDF9002800F04282731E039300230D932C1B631E049300F12B8200230693039B002BC0F21C82049AF6
:404300000C9311461944002304910B93229B092B29D8052B40F35286043B22930025229B023B032B00F22F86DFE813F02703200232035304424B454AC8F31300002814BF38
:404340001846104655E7CBF3130343F07F510F955046A4F2FF3441F44011169D84E73C483BE7C31C4EE70021C9F844104846229101F036F94FF0FF33229A07930E930123F2
:4043800008902392C9F840000A93179B002BC0F2CA80039A0E2A00F3C6802B4B03EBC20318CBCDE90434239B002BC0F2FC8256465F46DDE904AB304652465B463946FDF740
:4043C000AFFB02F087F90446FDF71AFA52465B46FDF77CFA02460B4630463946FDF7C2F8079E089F04F13005012E3D7002460B4607F101055ED00022164BFDF767FA00225F
:40440000002306460F4602F01DF9002878D1CDF81890DDF81CA0DDF820B0DDE9048928E061436F63A787D23FB3C8608B288AC63FFB799F501344D33F0000F07F21690000AA
:40444000406900000000F83F506900003469000020690000000024400022C34BFDF736FA0022002306460F4602F0ECF8002840F0B38342464B4630463946FDF751FB02F03B
:4044800029F90446FDF7BCF942464B46FDF71EFA02460B4630463946FDF764F804F1300605F8016BCBEB0506564502460B46D3D1DDF8189010461946FDF756F806460F46A2
:4044C00002460B46DDE9040102F0C6F840B9DDE9040132463B4602F0B5F888B1E3070FD515F8014C6B1E089A04E09A4200F02C8413F8014D392C03F10105F6D001341C7021
:404500000999484601F094F80022039B2A70249A01331360269B002B00F0A88308981D6019B0BDE8F08F0A9A002A00F01281229A012A40F35A82079B0B9A5F1EBA42C0F245
:404540009883D71B079B002BC0F28C84069D079B069A01211A440692049A48461A44049201F0FEF8064665B1049900290B4608DDA942A8BF2B46069AED1AD21ACB1A06926A
:4045800004930B9B002B40F3FD820A9A002A00F00382002F00F0008231463A46484601F087F9DDF82480014642460646484601F0E1F841460446484601F03AF80B9BDB1BFD
:4045C0000B9340F0E8810121484601F0C9F80C9B8046002B00F01B8201461A46484601F067F9229B8046012B40F3F9820027D8F8103008EB8303186901F064F8C0F12000CB
:40460000049A104410F01F0000F0F881C0F12003042B40F3CB84069BC0F11C00034406931346034405440493069B002B05DD21461A46484601F08CF90446049B002B05DD3E
:4046400041461A46484601F083F980460D9B002B40F07D82079B002B40F396820A9B002B40F0F681DDF820A0079F554604E02146484600F0E7FF044641462046FFF7E6FC6D
:40468000303005F8010BCAEB0503BB424FF00A024FF00003EBDB089B079A8246012AACBF9B1801331D464FF0000B21460122484601F04EF94146099001F0A0F9002840F3F9
:4046C0000E8315F8012C6B1E089904E08B4200F0798213F8012D392A03F10105F6D001321A704146484600F0A3FF002E3FF408AFBBF1000F05D0B34503D05946484600F0D9
:4047000097FF3146484600F093FFF9E601230D93EAE5DDF80C804046FDF772F802460B463046394601F08EFF00287FF4C9AD08F1FF330393C4E5069A039BD21A5B420B93B9
:40474000002306920C93E1E55B42069300230493D1E50B9F069D0A9E05E7C3F120080AFA08F07AE50D90BFE50000244000230A93039B239A13440E930133002B079340F377
:404780008582079C26460021172EC9F844100BD9012204235B0003F11400B042114602F10102F7D9C9F84410484600F019FF0E2C0890C9F840003FF6E8AD002D3FF4E5AD8E
:4047C0005746D8460399CDE91078002940F39382924B01F00F020E1103EBC203F006D3E9004540F14E828E4B5046D3E908235946FDF796F982468B4606F00F064FF00308A4
:4048000086B1874FF10709D5D7E9002320462946FDF75CF804460D4608F10108761007F10807EFD122462B4650465946FDF778F906460F460D9B43B100227A4B304639461D
:4048400001F00AFF002840F023834046FCF7D8FF32463B46FDF73AF8734B0022FCF784FE079B0446A1F15075002B00F0E181039B1393079B12930A9B002B00F09882129AAB
:40488000664B002003EBC20353E902236749FDF747F922462B46FCF765FE82468B463046394601F017FF0446FCF7AAFF02460B4630463946FCF756FE3034089DE4B20646C5
:4048C0000F462C7002460B4650465946013501F0E1FE00284ED132463B4600205149FCF741FE02460B465046594601F0D3FE002840F00E83129A012A40F3B481129B089AC0
:40490000134498460FE032463B4600204549FCF729FE52465B4601F09FFE002840F0F882454500F09F81504659460022404BFCF7CDFF00223E4B82468B4630463946FCF792
:40494000C5FF0F46064601F0C5FE0446FCF758FF02460B4630463946FCF704FE3034E4B205F8014B52465B4606460F4601F074FE0028C8D0139B0393C2E500230A93239B5E
:40498000002B40F388811E461C460E930793FAE601230A93F3E709940B9A0999484600F087FF04460FE6079B002B3FF700AD40F0D982DDE9040100221E4BFCF787FF52464B
:4049C0005B4601F05DFEDDF81C804646002800F0F180239B089DDB4303934146484600F027FE002E3FF48CAD8BE60F9A002A00F0418203F233430B9F069DA9E51C20069B4F
:404A0000054403440693049B034404930CE6229B012B40F381820C9F0120F1E550690000186A00000000F03F00001C400000E03F0000244000001440314600230A2248462C
:404A400000F000FE0E9B0646002B40F397820793002D05DD31462A46484600F079FF0646002F40F07B810696079B089A013BD318099317460AF00103C246DDF818B00A936F
:404A800051462046FFF7E2FA31460546204600F0B5FF5A4604905146484600F0CFFFC268804605F13003002A49D101462046079300F0A4FF41460690484600F0B9FD069A1C
:404AC000079B2AB9229919B90A99002900F0368204990029C0F2E48005D1229919B90A99002900F0DD80002A00F34C81099A07F1010897423B70454600F0538121460023ED
:404B00000A22484600F09EFD5E45044631464FF000034FF00A0248460BD000F093FD5946064600230A22484600F08CFD47468346A6E700F087FD474606468346A0E701464E
:404B40004846069300F074FD0122069BC0E74146204600F053FF0028BFF67CAD2146039C0023013C0A224846039400F06BFD0A9B0446002B7FF460AF0E9B002B40F3F681E4
:404B800007936FE5099C1EE5229B022B7FF766AD079B002B40F07A8141460522484600F051FD01468046204600F028FF002809947FF70FAF039A08993123013203920B7022
:404BC0004D1C0AE7039A312301320392089A137087E501230A93CBE5DDF8189090E4BAF1000F7FF403ADCBF31303002B40F040812BF000473F0D3F0537B1069B012701330B
:404C00000693049B013304930C9B0120002B3FF4F7ACECE44046FCF7F3FD32463B46FCF755FE0022BF4BFCF79FFC0446A1F15075304639460022BC4BFCF794FC22462B465B
:404C400006460F4601F026FD8046002840F00681224605F100433046394601F0FDFC08B14646B6E6DDE910ABFFF78FBB0898FFF7B4BA0B9B0C9AFB1A1A440B970C9200278E
:404C800060E4DDE910AB4FF00208B9E51C460021C9F8441088E5012423940E940794F6E7002AD046CDF818B09A4611DD21460122484600F04DFE4146044600F09FFE0028D9
:404CC00040F34981BAF1390F00F0078105F1310AB34687F800A07D1C069E099401E504D11AF0010F01D0ECE4154615F8013C6A1E302BF9D0F5E4039B5C42002C00F0C180F0
:404D0000DDE91001894B04F00F0203EBC203D3E90023FCF7DBFD241106460F4600F02B81834D4FF00208E20709D5D5E9002330463946FCF7CBFD06460F4608F1010864106C
:404D400005F10805EFD175E5089930220A70039A15F8014C01320392FFF7D0BB7168484600F03EFC0546336906F10C019A1C92000C30FDF7C3FC29460122484600F0E8FDC1
:404D8000069071E6392BCDF818B0D04600F0A58003F1010AB34687F800A07D1C069E09949FE45A46D046B3469A4616467DE4129B5E4903F1FF3A01EBCA012246D1E90001CF
:404DC0002B46FCF783FDCDE914013946304601F081FC0446FCF714FD0B46024639463046FCF7C0FB129B0F4608993034012B06460C7001F101051FD0129B089AA8461344A1
:404E00009B4600224B4B30463946FCF75FFD0F46064601F05FFC0446FCF7F2FC02460B4630463946FCF79EFB303408F8014BC34506460F46E5D1554400223F4BDDE9140134
:404E4000FCF792FB32463B4601F006FC00284CD0139B039315F8014CFFF744BB4FF000084646A7E6069B079A9D1A0023FFF770BB0027C9E6169B0B9FC3F13603069DFFF79B
:404E800067BBDDE910674FF00208D3E40994A0E5079B002B3FF4BEAE0E9B002B7FF7E2AE0022244B30463946FCF710FD06460F4608F10100FCF7A4FC32463B46FCF706FD88
:404EC0000022184BFCF750FB039A0E9B013A04461392A1F150751293CDE43922B3460994069E3A707D1CFFF7EEBBDDE9142300201149FCF737FB32463B4601F0CBFB08B94E
:404F0000B0E6154615F8013C6A1E302BF9D031E5139B0393FFF7E6BABAF1000F7FF47BAD61E600BF00001C400000144050690000186A0000000024400000E03F392BCDF8A8
:404F400018B0D046DDF810B09A46C6D0BBF1000F3FF7BCAEBCE67FF4BBAE1AF0010F3FF4B7AEAFE64FF00008464632E5229B022B21DC0E9B04E64FF002085BE4229B022B52
:404F800019DC0E9B63E50024C9F844402146484600F026FB4FF0FF3307930E93012308902394C9F840000A93FFF7EFB93FF43CABC0F13C0023E50E9B0793E9E50125FFF705
:404FC000AEB900BF38B5074D074C2C1BA41005D0013C55F8043D9847002CF9D1BDE8384001F040BD746A0000706A0000004870471C85FF1F2DE9F04F01F10B05162D83B039
:40500000064640F2A08035F0070500F1C080A94200F2BD8000F0E0FAB5F5FC7FC0F090826B0A00F0BB80042B00F27781A80900F1390E4FEA4E013830BE4F07EB81014C68DE
:405040000839A14207D1AEE0002A80F2AE80E468A14200F0A880636823F003035A1B0F2AF2DDB4493C6901F1080E744500F0A881636823F003035A1B0F2A00F38E81002AFA
:40508000C1F814E0C1F810E080F29380B3F5007F80F05C81DB084A684FEAA3094FF0010C013351F833800CFA09F901EBC30C49EA0202ACF1080CC4F80CC0C4F808804A608A
:4050C00041F83340C8F80C40831001249C4094427CD8144206D120F003006400144200F10400FAD007EBC009CC468046DCF80C108C4507D166E1002A80F27481C9688C457B
:4051000000F060814B6823F003035A1B0F2AF2DD0C46CB6854F808CF45F00108C1F804800D4442F00101CCF80C303046C3F808C07D613D61C5F80CE0C5F808E06960AA5027
:4051400000F04CFA1FE0102921D800F045FA102506230220774F07EB83035C68A3F10802944200F038816368E16823F0030323445A68A56842F00102E96030468D605A60FC
:4051800000F02CFA0834204603B0BDE8F08F002420460C23336003B0BDE8F08F80214FF0400E3F2048E770465BE723445A68E168DFE723445A68304642F001025A60083487
:4051C00000F00CFA204603B0BDE8F08FBC68636823F00308A84504D3C5EB08030F2B00F38C80554BDFF860911A68D9F800302A44013304EB080A00F0608102F580520F324E
:4052000022F47F6222F00F0211463046019200F0FDFCB0F1FF3F8346019A00F05881824500F2FC80454BDA4519681144196000F05381D9F80000DFF810E101301BBFCAEBAF
:405240000B0A5144CEF800B019601BF0070100F01781C1F10800C1F58051834408315A44C2F30B02C2EB010949463046019300F0CDFC431C019B00F03F81CBEB00024A445F
:4052800042F001021968BC424944C7F808B01960CBF80420DFF8A49016D0B8F10F0F40F2FD806268A8F10C0323F0070302F00102E0184FF0050E1A430F2B6260C0F804E0AC
:4052C000C0F808E000F21C811D4BBC681A68914288BF19601B4B1A689142626888BF196022F003029542A2EB050301D80F2B04DC304600F073F9002445E745F0010243F096
:405300000103254462603046BD6008346B6000F065F9204603B0BDE8F08F142B71D9542B00F2A480280B00F16F0E4FEA4E016E3082E600BF5485FF1F9C89FF1FA089FF1F8C
:405340009889FF1F9489FF1F6089FF1F5A0A042A5ED9142A00F2B38002F15C0149005B3207EB810C57F82110ACF1080C8C45DFF8D88100F088804A6822F00302934202D23F
:4053800089688C45F7D1D1F80CC07A68C4F80CC0A160CCF80840CC6096E645F0010742F001032544676030464D610D61C5F80CE0C5F808E06B60AA50083400F00FF9E2E66B
:4053C0004A6881E608F1010818F0030F0CF1080C7FF48CAE30E0DC68A34208BF02303FF440AEC0E60C460B445A68C96854F8085F42F001025A603046E9608D6000F0EEF809
:40540000C1E603F15C0E03F15B004FEA4E0113E69A0902F1390149003832A1E7BC424A4B3FF400AF9C68626822F003025AE759F80839994540F0828010F0030F00F1FF301D
:40544000F5D17B6823EA04037B6064009C423FF6BDAE002C3FF4BAAE1C4240467FF442AE64001C4200F10400FAD03BE6B3F5AA7F18D8E80B00F1780E4FEA4E017730DBE5E8
:405480004FF48051EBE60121D8F80430921001FA02F21A43C8F80420614677E70123CBF8043025E740F25452934220D8A80C00F17D0E4FEA4E017C30BEE51032A4E6542AED
:4054C00026D81A0B02F16F0149006E3248E7BC68626822F0030205E7CAF30B0000287FF4A8AE4244BB6842F001025A60ECE6FE214FF07F0E7E209FE501224FF00009C1E6DB
:4055000004F10801304600F011FDD9F80010DBE6B2F5AA7F05D8DA0B02F17801490077321EE740F254518A4205D89A0C02F17D0149007C3214E7FE217E2211E77B6884E7D4
:40554000E808431C5B0005E65485FF1F830770B4CDB23DD0531E02B30278AA421ED0421C04E0D3B10478013BAC4217D012F0030F104602F10102F4D1032B11D853B30278DC
:40558000AA420BD00344421C02E00178A94205D09342104602F10102F7D1002070BC704704460E0206F47F462E4346EA0646226820467240A2F1013121EA020212F0803F3B
:4055C00004F10404DBD1043B032B2046EFD8D5E71346D1E71846E1E7704700BF704700BFC26C70B505460C4652B152F824308BB1196842F82410002218461A61DA6070BD6B
:405600002122042100F014FCE86402460028ECD1002070BD012101FA04F6721D2846920000F006FC03460028F2D044608660E2E731B1C36C4A6853F82200086043F8221019
:40564000704700BFF0B50C4605460E6983B001F1140E0027DEF80000013781B202FB0131000C0B0C02FB003389B201EB0341BE424EF8041B4FEA1343ECDC3BB1A2689642D5
:4056800007DA04EB8602013653612661204603B0F0BD6168284601310193FFF7A1FF0746226904F10C01023292000C30FDF726F8EA6C6168019B52F82100206042F8214098
:4056C0003C46DEE7030C1B04B3B90004102310F07F4F04BF0002083310F0704F04BF0001043310F0404F04BF80000233002807DB420003D4202070470023E8E7581C7047CC
:4057000018467047036813F0070207D0D90720D49A0720D49B0803600220704799B209B91B0C102213F0FF0F04BF1B0A0832190704BF1B090432990704BF9B080232D907CE
:4057400004D45B0801D1202070470132036010467047002070475B0803600120704700BF10B50C460121FFF73BFF01224461026110BD00BF2DE9F04F0D69166985B0B542B8
:405780000C46914604DA2A464C46354689461646A36805EB060861689845C8BF0131FFF71FFF00F1140A0AEB880BDA45019005D25346002143F8041B9B45FBD809F11409C2
:4057C00009EB860304F11402994502EB850C59D2CDF808B0CDF80C809B46904659F8047B1FFA87FEBEF1000F1FD047465646002100E00646304657F8045B3468ABB2A2B213
:405800000EFB03222D0C240C0EFB0544531804EB13419AB242EA0142BC454FEA114140F8042BE6D8716059F8047C3F0C22D0DAF80030002255461E464046964600E02546B6
:405840002C460288360C07FB026699B206EB0E0241EA024344F8043B50F8041B6E68090CB3B207FB0131844501EB12434FEA134EE5D86B60CB450AF1040AAFD8DDF808B005
:40588000DDF80C80B8F1000F0BDD5BF8043CABF1040B1BB105E05BF8043D13B9B8F10108F9D10198C0F8108005B0BDE8F08F00BF12F003032DE9F041144607462ED10E465A
:4058C000A4101CD0BD6C95B3E3074FF0000806D4641014D02868A8B10546E307F8D52A4631463846FFF746FFB6B17268FB6C641053F82210316043F822600646EAD1304645
:40590000BDE8F0812A4629463846FFF733FF2860C0F800800546E0E70646D9E70B4A013B52F823200023FFF78DFE0646C8E701213846FFF755FE40F271210122002341619C
:4059400002610546B8640360BEE700BF406A00002DE9F84F0B69541104EB03088B6808F101059D420E4691468346496804DD5B009D4201F10101FADC5846FFF731FE002C72
:4059800000F1140237DD02EB8403002142F8041B9342FBD1346906F1140119F01F0901EB840E20D0C9F1200C00240F681A4607FA09FA4AEA040443F8044B51F8044B8E45DF
:4059C00024FA0CF4F1D854600CB108F10205DBF84C307268013D53F822100561316043F82260BDE8F88F043B51F8042B8E4543F8042FF9D8EBE71346CCE700BF02690B6946
:405A0000D21A12D19B0014301431194410B4034401E098420BD253F8044D51F8042D9442F7D007D3012010BC704710467047002010BC70474FF0FF30F5E700BF2DE9F0473C
:405A40000B690C46116990465B1A002B18D1890004F1140602F114077318394401E09E4269D253F8045D51F8042D9542F7D06BD22346B24644463E4698464FF0010906E060
:405A800066DB04F1140602F1140A4FF000096168FFF7A6FD5546D4F810E0D8F810303746C0F80C900AEB830C06EB8E0600F114044FF0000957F8042B55F8041B1FFA82F8CC
:405AC00008EB09031FFA81F8090CC8EB0303C1EB124202EB23429BB243EA0243AC4544F8043B4FEA2249E5D8BE4218D9A046BC465CF8042B95B205EB09010B1403EB12426B
:405B00008BB243EA0243664548F8043B4FEA2249EED8FF43374427F0030704373C44043C2BB954F8043D0EF1FF3E002BF9D0C0F810E0BDE8F0870021FFF752FD0122002338
:405B400002614361BDE8F087BA464FF000099EE7234604F1140A08F1140644464FF00109984694E7F0B5012183B01C46C3F30A551646FFF735FDC4F3130407460DB144F474
:405B80008014019406B302A840F8086DFFF7BAFD002830D19DE80C007A61002B0CBF01210221BB613961D5B9089A07EB8103A0F2324010601869FFF785FD099BC0EB4110C6
:405BC0001860384603B0F0BD01A8FFF79BFD019B0122114620303A617B61002DE4D0A5F23343089A03441360099BC0F135001860384603B0F0BD019BC0F12001009A03FA0C
:405C000001F10A43C34001937A61C6E738B5074C0023054608462360FAF72CFD431C00D038BD2368002BFBD02B6038BD908AFF1F20F0030110F00300C0F1000051F8043BC0
:405C400000F1040C4FEACC0C6FF000021CBF22FA0CF213434FF0010C4CEA0C2C4CEA0C4CA3EB0C0222EA030212EACC1204BF51F8043B0430F4D0C2F1000102EA0102B2FA05
:405C800082F2C2F11F0200EBD20070472DE9F04F936883B09046002B72D04FF000090D464C468346166808688B68002C45D09C421F469A4646D3AB8913F4906F2DD06F69FF
:405CC000296907EB4707C1EB000A07EBD777601C7F105044B8423A4684BF07463A465B0533D511465846FFF785F9002837D0524629690190FCF702FDAA89019B22F490622F
:405D000042F08002AA81CAEB070203EB0A006F61A24627462B612860AA605246494600F0EDF9D8F80820AB682868DB1B5044141BAB602860C8F8084014B3D6F8009074689E
:405D40000836B2E72746A246E7E7584600F03AFA03460028D7D12969584600F0E7F80C23CBF80030AB89002243F040034FF0FF30AB81C8F80820C8F8042003B0BDE8F08F24
:405D80000020C8F8040003B0BDE8F08F2DE9F047254C064625688846D5F8484192469946C4B360681F2817DC411C76B104EB8003C3F888A0D4F88851012282401543022E52
:405DC000C4F88851C3F808911ED0831C6160002044F82380BDE8F087144B03B34FF4C870AFF300800446D0B1D5F84831002784E888003846C5F848410121C4F88871C4F81C
:405E00008C71002EE1D0D1E7D4F88C311A43C4F88C21DAE705F5A674C5F84841C1E74FF0FF30BDE8F08700BFCC6800000000000010B502FB01F1FFF7DDF80446D8B150F8A5
:405E4000042C22F00302043A242A18D8132A14D900231B2A0360436016D9242A8360C36011BF00F110020361436100F118020023136053609360204610BD0246F7E70021E8
:405E8000FCF7B2FC204610BD00F10802EFE700BFF8B50C46224F0646FFF79EFBBB685D6825F00305291B01F6EF7121F47F6121F00F01A1F58054B4F5805F07DB0021304612
:405EC000FFF7A4FEBB682B44984204D03046FFF785FB0020F8BD61423046FFF797FE01300DD0104BBA6819682D1B45F001053046091B55601960FFF771FB0120F8BD0021B5
:405F00003046FFF783FEBA68831A0F2BDEDD064C0449246843F00103001B53600860D5E75485FF1FA089FF1F6089FF1F002945D02DE9F0410D468046FFF74EFB55F8047C7D
:405F40006A49A5F1080427F00103E2188E685068B24220F0030062D0FE0750600BD455F8087C01F1080EE41BA5683B4475456FD0E768EF60BD6015186D68ED0742D543F0E4
:405F800001026260E350B3F5007F18D2DB0848689D100122013351F8337002FA05F501EBC3022843083AE260A760486041F83340FC604046BDE8F041FFF710BB70475A0AD0
:405FC000042A53D89A0902F139077F0002F1380501EB870051F827200838904243494DD0516821F003018B4202D292689042F7D1D068E060A2608460D4604046BDE8F04114
:40600000FFF7ECBA95683A4F0344BD423FD0D06843F00102E86085606260E350B3E7FF07034407D455F8085C641BE268A0682B44C26090602F4A43F00100126860609342D8
:406040008C60B6D32C4B40461968FFF721FFB0E711184968C90744D491680344D26843F00100CA6091606060E350A2E7142A17D802F15C077F0002F15B05A9E7AA104B6827
:40608000012505FA02F213434B600246B1E743F001024C610C61E560A5606260E35088E7542A06D81A0B02F16F077F0002F16E058EE7B2F5AA7F06D8DA0B02F178077F0020
:4060C00002F1770584E740F25450824206D89A0C02F17D077F0002F17C0579E7FE277E2576E743F001026260E35062E75485FF1F5C85FF1F5C89FF1F9C89FF1F8842F0B59A
:406100000DD98B1898420AD28118002A51D09A1A13F8014D934201F8014DF9D1F0BD0F2A48D941EA00039B0746D1154600F1100401F1100353F8106C103D44F8106C53F8DF
:406140000C6C0F2D44F80C6C53F8086C04F1100444F8186C53F8046C03F1100344F8146CE8D8A2F1100323F00F0302F00F0E1033BEF1030F1944034421D90E4674461D1F2B
:4061800056F8047B043C032C45F8047FF8D8AEF1040424F0030404342344214402F0030262B1013B0A4411F8014B8A4203F8014FF9D1F0BD0346F3E70346F2E7F0BD72462C
:4061C000EEE700BF2DE9F04F174683B0002900F08F800D46814607F10B04FFF7FDF955F804EC162C2EF00306A5F108083CD810221446A7423DD8964242DAC64B08EB060009
:4062000099688842416800F0D78021F0010303445B68DB074CD51EF0010F00F09D8039464846FEF7E7FE074600283AD055F8043CA0F1080223F0010343449A4200F03E819F
:40624000321F242A00F22B81132A00F2FF8003462A46116819605168596092689A6029464846FFF763FE1CE024F00704002C2246BFDA0C230020C9F8003003B0BDE8F08F6F
:406280002F46331B0F2BD8F804201DD802F00102324308EB0601C8F804204B6843F001034B604846FFF79AF9384603B0BDE8F08F21F003013144914220DBC36882682F46CD
:4062C000D3600E469A60DCE702F0010208EB0401144343F00102C8F804400B444A605A68083142F001025A604846FFF71FFED8E7114603B0BDE8F04FFEF77CBE1EF0010F5E
:406300008DD155F8083CC3EB080ADAF8043023F0030C01EB0C0E964526DB5746C3688168321FCB60996057F8081FDAF80C30242ACB60996000F2C980132A40F292802B6839
:406340001B2ACAF808306B68CAF80C3000F2CD8008350AF1100385E055F8083CC3EB080ADAF8043023F0030C06EB0C039342FFF656AF5746DAF80C1057F8080F321F242A46
:40638000C160886000F2AA80132A40F2A58029681B2ACAF808106968CAF80C1000F2BC8008350AF1100229681E4611606968D0465160AB68936064E721F0030B04F11000DA
:4063C000B344834557DA1EF0010F7FF428AF55F8081CC1EB080ADAF8041021F0030CE3445845C1DC5746DAF80C1057F8080F321F242AC160886000F2B180132A40F2A28062
:4064000029681B2ACAF808106968CAF80C1000F2AC8008350AF110022968116069685160A9689160C4EB0B020AEB040142F0010299604A60DAF80430484603F001031C4397
:40644000CAF80440FFF7CAF838462EE72B681B2A03606B68436026D800F1080305F10802F7E63B462A6876461A606A68D0465A60AA689A6005E7C4EB0B0B08EB04014BF068
:40648000010299604A6055F8043C484603F001031C4345F8044CFFF7A1F8284605E72946FFF72CFEDBE6AB68242A8360EB68C36027D000F1100305F11002CAE650F8043C0A
:4064C0002F4623F003031E44DBE6294638467646D046FFF713FED4E63A4664E7294638461E46D046FFF70AFECBE6AB68242ACAF81030EB68CAF814301AD010350AF1180389
:40650000B0E72A6900F118030261696905F1180241619EE65485FF1FA968242ACAF81010E968CAF814100FD010350AF118023AE72A690AF12003CAF818206A691835CAF864
:406540001C208FE73A4667E729690AF12002CAF8181069691835CAF81C1024E7294638460193FFF7CBFD019B5CE7A968242ACAF81010E968CAF8141003D010350AF1180227
:406580004AE729690AF12002CAF8181069691835CAF81C1040E700BF4FF0FF3C06E000BF4FF0010C02E000BF4FF0010C4DF804CD4FEA410C7FEA6C5C4FEA430C18BF7FEA31
:4065C0006C5C1BD001B050EA410C0CBF52EA430C91EA030F02BF90EA020F0020704710F1000F91EA030F58BF994208BF90422CBFD8176FEAE37040F0010070474FEA410C8E
:406600007FEA6C5C02D150EA013C07D14FEA430C7FEA6C5CD6D152EA033CD3D05DF8040B704700BF8446104662468C461946634600E000BF01B5FFF7B7FF002848BF10F1DC
:40664000000F01BD4DF808EDFFF7F4FF0CBF012000205DF808FB00BF4DF808EDFFF7EAFF34BF012000205DF808FB00BF4DF808EDFFF7E0FF94BF012000205DF808FB00BFE9
:406680004DF808EDFFF7CEFF94BF012000205DF808FB00BF4DF808EDFFF7C4FF34BF012000205DF808FB00BF4FEA410C7FEA6C5C02D150EA013C0AD14FEA430C7FEA6C5C5F
:4066C00002D152EA033C02D14FF0000070474FF0010070474FEA410212F5001215D211D56FF47873B3EB625212D94FEAC12343F0004343EA505311F0004F23FA02F018BF06
:40670000404270474FF00000704750EA013005D111F0004008BF6FF0004070474FF00000704700BF53B94AB9002908BF00281CBF4FF0FF314FF0FF30FBF7B0BFADF1080CE4
:406740006DE904CEFBF734FEDDF804E0DDE9022304B070470000000058BCFF7F010000000010000081000000434F323A2025642070706D2C2054656D7065726174757265AC
:406780003A20256420646567726565732C2052656C61746976652048756D69646974793A20256425250A00004672657175656E6379203D20256C7520487A2C2043617061F3
:4067C000636974616E63653A20252E3266206E460A00000043757272656E742074656D70657261747572653A20252E326620646567726565732043656C736975730D0A009B
:40680000426567696E2068656174696E672E2E2E0A0000005365743A20252E32662C2054656D703A20252E32662C204572723A20252E32662C2050574D3A2025642C204FCF
:4068400075743A20252E32660D0A000048656174696E672073746F707065642E0A0000005374617274696E672073656E736F722072656164696E672E2E2E0A00C8490040D7
:406880001900004F00400C00305100404000F0510040100000000140001000140140000800400140000A004C014000020050014020000000605200409C0600480600000037
:4068C0006C6F67660000000043000000F080FF1F20202020202020202020202020202020494E4600696E66004E414E006E616E003031323334353637383941424344454649
:40690000000000003031323334353637383961626364656600000000286E756C6C2900003000000030303030303030303030303030303030496E66696E697479000000006F
:406940004E614E00504F5349580000002E000000000000000000F03F000000000000244000000000000059400000000000408F40000000000088C34000000000006AF840F1
:406980000000000080842E4100000000D01263410000000084D797410000000065CDCD41000000205FA00242000000E876483742000000A2941A6D42000040E59C30A24215
:4069C0000000901EC4BCD64200003426F56B0C430080E03779C3414300A0D8855734764300C84E676DC1AB43003D9160E458E143408CB5781DAF154450EFE2D6E41A4B44E7
:406A000092D54D06CFF08044F64AE1C7022DB544B49DD9794378EA440080E03779C34143176E05B5B5B89346F5F93FE9034F384D321D30F94877825A3CBF737FDD4F1575FE
:406A400005000000190000007D000000F8B500BFF8BC08BC9E4670472D4000004D000000F1060000F8B500BFF8BC08BC9E46704729000000886A0000C880FF1FA0080000A3
:406A8000300100000000000000000000000070426F12833A0000F042988AFF1F0000E02EC05D00001800000000366E010100000000000000DC83FF1F4484FF1FAC84FF1FA9
:406AC000000000000000000000000000000000000000000000000000000000000000000000000000C868000000000000000000000000000000000000000000000000000066
:406B00000000000000000000000000000000000000000000000000000000000000000000000000000000000000000000000000000000000000000000000000000000000055
:406B400000000000000000000000000000000000000000000000000001000000000000000E33CDAB34126DE6ECDE05000B00000000000000000000000000000000000000E8
:406B800000000000000000000000000000000000000000000000000000000000000000000000000000000000000000000000000000000000000000000000000000000000D5
:406BC0000000000000000000000000000000000000000000000000000000000000000000000000000000000000000000000000000000000000000000000000000000000095
:406C00000000000000000000000000000000000000000000000000000000000000000000000000000000000000000000000000000000000000000000000000000000000054
:406C40000000000000000000000000000000000000000000000000000000000000000000000000000000000000000000000000000000000000000000000000000000000014
:406C800000000000000000000000000000000000000000000000000000000000000000000000000000000000000000000000000000000000000000000000000000000000D4
:406CC0000000000000000000000000000000000000000000000000000000000000000000000000000000000000000000000000000000000000000000000000000000000094
:406D00000000000000000000000000000000000000000000000000000000000000000000000000000000000000000000000000000000000000000000000000000000000053
:406D40000000000000000000000000000000000000000000000000000000000000000000000000000000000000000000000000000000000000000000000000000000000013
:406D800000000000000000000000000000000000000000000000000000000000000000000000000000000000000000000000000000000000000000000000000000000000D3
:406DC0000000000000000000000000000000000000000000000000000000000000000000000000000000000000000000000000000000000000000000000000000000000093
:406E00000000000000000000000000000000000000000000000000000000000000000000000000000000000000000000000000000000000000000000000000000000000052
:406E40000000000000000000000000000000000000000000000000000000000000000000000000000000000000000000000000000000000000000000000000000000000012
:406E800000000000000000000000000000000000000000000000000000000000000000000000000000000000000000000000000000000000000000000000000000000000D2
:406EC000000000000000000000000000000000000000000000000000F080FF1F4C690000006900000069000000690000006900000069000000690000006900000069000007
:406F000000690000FFFFFFFFFFFFFFFFFFFFFFFFFFFF000000000000000000005485FF1F5485FF1F5C85FF1F5C85FF1F6485FF1F6485FF1F6C85FF1F6C85FF1F7485FF1FC7
:406F40007485FF1F7C85FF1F7C85FF1F8485FF1F8485FF1F8C85FF1F8C85FF1F9485FF1F9485FF1F9C85FF1F9C85FF1FA485FF1FA485FF1FAC85FF1FAC85FF1FB485FF1FA1
:406F8000B485FF1FBC85FF1FBC85FF1FC485FF1FC485FF1FCC85FF1FCC85FF1FD485FF1FD485FF1FDC85FF1FDC85FF1FE485FF1FE485FF1FEC85FF1FEC85FF1FF485FF1F61
:406FC000F485FF1FFC85FF1FFC85FF1F0486FF1F0486FF1F0C86FF1F0C86FF1F1486FF1F1486FF1F1C86FF1F1C86FF1F2486FF1F2486FF1F2C86FF1F2C86FF1F3486FF1F14
:407000003486FF1F3C86FF1F3C86FF1F4486FF1F4486FF1F4C86FF1F4C86FF1F5486FF1F5486FF1F5C86FF1F5C86FF1F6486FF1F6486FF1F6C86FF1F6C86FF1F7486FF1FD0
:407040007486FF1F7C86FF1F7C86FF1F8486FF1F8486FF1F8C86FF1F8C86FF1F9486FF1F9486FF1F9C86FF1F9C86FF1FA486FF1FA486FF1FAC86FF1FAC86FF1FB486FF1F90
:40708000B486FF1FBC86FF1FBC86FF1FC486FF1FC486FF1FCC86FF1FCC86FF1FD486FF1FD486FF1FDC86FF1FDC86FF1FE486FF1FE486FF1FEC86FF1FEC86FF1FF486FF1F50
:4070C000F486FF1FFC86FF1FFC86FF1F0487FF1F0487FF1F0C87FF1F0C87FF1F1487FF1F1487FF1F1C87FF1F1C87FF1F2487FF1F2487FF1F2C87FF1F2C87FF1F3487FF1F03
:407100003487FF1F3C87FF1F3C87FF1F4487FF1F4487FF1F4C87FF1F4C87FF1F5487FF1F5487FF1F5C87FF1F5C87FF1F6487FF1F6487FF1F6C87FF1F6C87FF1F7487FF1FBF
:407140007487FF1F7C87FF1F7C87FF1F8487FF1F8487FF1F8C87FF1F8C87FF1F9487FF1F9487FF1F9C87FF1F9C87FF1FA487FF1FA487FF1FAC87FF1FAC87FF1FB487FF1F7F
:40718000B487FF1FBC87FF1FBC87FF1FC487FF1FC487FF1FCC87FF1FCC87FF1FD487FF1FD487FF1FDC87FF1FDC87FF1FE487FF1FE487FF1FEC87FF1FEC87FF1FF487FF1F3F
:4071C000F487FF1FFC87FF1FFC87FF1F0488FF1F0488FF1F0C88FF1F0C88FF1F1488FF1F1488FF1F1C88FF1F1C88FF1F2488FF1F2488FF1F2C88FF1F2C88FF1F3488FF1FF2
:407200003488FF1F3C88FF1F3C88FF1F4488FF1F4488FF1F4C88FF1F4C88FF1F5488FF1F5488FF1F5C88FF1F5C88FF1F6488FF1F6488FF1F6C88FF1F6C88FF1F7488FF1FAE
